{
  "contractName": "CrowdFunding",
  "abi": [
    {
      "inputs": [],
      "stateMutability": "nonpayable",
      "type": "constructor"
    },
    {
      "inputs": [
        {
          "internalType": "uint256",
          "name": "amount",
          "type": "uint256"
        }
      ],
      "name": "invest",
      "outputs": [],
      "stateMutability": "payable",
      "type": "function"
    },
    {
      "inputs": [],
      "name": "getCurrentFunds",
      "outputs": [
        {
          "internalType": "uint256",
          "name": "",
          "type": "uint256"
        }
      ],
      "stateMutability": "view",
      "type": "function"
    },
    {
      "inputs": [
        {
          "internalType": "uint256",
          "name": "_numberOfInvestors",
          "type": "uint256"
        }
      ],
      "name": "setNumberOfInvestors",
      "outputs": [],
      "stateMutability": "nonpayable",
      "type": "function"
    }
  ],
  "bytecode": "0x6080604052600a60005534801561001557600080fd5b5060005467ffffffffffffffff811115610058577f4e487b7100000000000000000000000000000000000000000000000000000000600052604160045260246000fd5b6040519080825280602002602001820160405280156100865781602001602082028036833780820191505090505b506001908051906020019061009c9291906100a2565b50610149565b82805482825590600052602060002090810192821561011b579160200282015b8281111561011a5782518260006101000a81548173ffffffffffffffffffffffffffffffffffffffff021916908373ffffffffffffffffffffffffffffffffffffffff160217905550916020019190600101906100c2565b5b509050610128919061012c565b5090565b5b8082111561014557600081600090555060010161012d565b5090565b61062a806101586000396000f3fe6080604052600436106100345760003560e01c80632afcf480146100395780632ca2ddd614610055578063a23318ab14610080575b600080fd5b610053600480360381019061004e91906104b2565b6100a9565b005b34801561006157600080fd5b5061006a610264565b60405161007791906104ea565b60405180910390f35b34801561008c57600080fd5b506100a760048036038101906100a291906104b2565b61026c565b005b8034146100b557600080fd5b600360003373ffffffffffffffffffffffffffffffffffffffff1673ffffffffffffffffffffffffffffffffffffffff16815260200190815260200160002060009054906101000a900460ff1661020a576001339080600181540180825580915050600190039060005260206000200160009091909190916101000a81548173ffffffffffffffffffffffffffffffffffffffff021916908373ffffffffffffffffffffffffffffffffffffffff16021790555080600260003373ffffffffffffffffffffffffffffffffffffffff1673ffffffffffffffffffffffffffffffffffffffff168152602001908152602001600020819055506001600360003373ffffffffffffffffffffffffffffffffffffffff1673ffffffffffffffffffffffffffffffffffffffff16815260200190815260200160002060006101000a81548160ff021916908315150217905550610261565b80600260003373ffffffffffffffffffffffffffffffffffffffff1673ffffffffffffffffffffffffffffffffffffffff16815260200190815260200160002060008282546102599190610505565b925050819055505b50565b600047905090565b60008167ffffffffffffffff8111156102ae577f4e487b7100000000000000000000000000000000000000000000000000000000600052604160045260246000fd5b6040519080825280602002602001820160405280156102dc5781602001602082028036833780820191505090505b50905060005b6001805490508110156103da5760018181548110610329577f4e487b7100000000000000000000000000000000000000000000000000000000600052603260045260246000fd5b9060005260206000200160009054906101000a900473ffffffffffffffffffffffffffffffffffffffff1682828151811061038d577f4e487b7100000000000000000000000000000000000000000000000000000000600052603260045260246000fd5b602002602001019073ffffffffffffffffffffffffffffffffffffffff16908173ffffffffffffffffffffffffffffffffffffffff168152505080806103d290610565565b9150506102e2565b5080600190805190602001906103f19291906103f6565b505050565b82805482825590600052602060002090810192821561046f579160200282015b8281111561046e5782518260006101000a81548173ffffffffffffffffffffffffffffffffffffffff021916908373ffffffffffffffffffffffffffffffffffffffff16021790555091602001919060010190610416565b5b50905061047c9190610480565b5090565b5b80821115610499576000816000905550600101610481565b5090565b6000813590506104ac816105dd565b92915050565b6000602082840312156104c457600080fd5b60006104d28482850161049d565b91505092915050565b6104e48161055b565b82525050565b60006020820190506104ff60008301846104db565b92915050565b60006105108261055b565b915061051b8361055b565b9250827fffffffffffffffffffffffffffffffffffffffffffffffffffffffffffffffff038211156105505761054f6105ae565b5b828201905092915050565b6000819050919050565b60006105708261055b565b91507fffffffffffffffffffffffffffffffffffffffffffffffffffffffffffffffff8214156105a3576105a26105ae565b5b600182019050919050565b7f4e487b7100000000000000000000000000000000000000000000000000000000600052601160045260246000fd5b6105e68161055b565b81146105f157600080fd5b5056fea2646970667358221220fa47f22cde410bb028f4f81eb8cf13c88a0ca48d021cf7f5457d17ea8329ce6864736f6c63430008010033",
  "immutableReferences": {},
  "source": "// SPDX-License-Identifier: UNLICENSED\n\npragma solidity >= 0.7.0 < 0.9.0;\n\ncontract CrowdFunding {\n\tuint numberOfInvestors = 10;\n\taddress[] investors; // dynamic to allow change\n\tmapping(address => uint256) investments;\n\tmapping(address => bool) isInvestor;\n\n\tconstructor() {\n\t\tinvestors = new address[](numberOfInvestors);\n\t}\n\n\tfunction invest(uint256 amount) payable public {\n\t\trequire(msg.value == amount);\n\t\tif (!isInvestor[msg.sender]) {\n\t\t\tinvestors.push(msg.sender);\n\t\t\tinvestments[msg.sender] = amount;\n\t\t\tisInvestor[msg.sender] = true;\n\t\t} else {\n\t\t\tinvestments[msg.sender] += amount;\n\t\t}\n\t}\n\n\tfunction getCurrentFunds() public view returns (uint256) {\n\t\treturn address(this).balance;\n\t}\n\t\n\tfunction setNumberOfInvestors(uint _numberOfInvestors) public {\n\t\taddress[] memory newInvestors = new address[](_numberOfInvestors);\n\t\tfor (uint i = 0; i < investors.length; i++) {\n\t\t\tnewInvestors[i] = investors[i];\n\t\t}\n\t\tinvestors = newInvestors;\n\t\t\n\t}\n}\n",
  "sourcePath": "/home/joakim/DAPP/VoteSysDapp/contracts/CrowdFunding.sol",
  "compiler": {
    "name": "solc",
    "version": "0.8.1+commit.df193b15.Emscripten.clang"
  },
  "schemaVersion": "3.4.6",
  "updatedAt": "2022-04-19T07:03:29.089Z",
  "devdoc": {
    "kind": "dev",
    "methods": {},
    "version": 1
  },
  "userdoc": {
    "kind": "user",
    "methods": {},
    "version": 1
  }
}