{
  "contractName": "VoteHandling",
  "abi": [
    {
      "inputs": [],
      "stateMutability": "nonpayable",
      "type": "constructor"
    },
    {
      "anonymous": false,
      "inputs": [
        {
          "indexed": false,
          "internalType": "address",
          "name": "candidate",
          "type": "address"
        }
      ],
      "name": "candidateAdded",
      "type": "event"
    },
    {
      "anonymous": false,
      "inputs": [
        {
          "indexed": false,
          "internalType": "address",
          "name": "candidate",
          "type": "address"
        },
        {
          "indexed": false,
          "internalType": "string",
          "name": "message",
          "type": "string"
        }
      ],
      "name": "candidateFail",
      "type": "event"
    },
    {
      "anonymous": false,
      "inputs": [
        {
          "indexed": false,
          "internalType": "address",
          "name": "voter",
          "type": "address"
        },
        {
          "indexed": false,
          "internalType": "address",
          "name": "candidate",
          "type": "address"
        }
      ],
      "name": "voteCast",
      "type": "event"
    },
    {
      "anonymous": false,
      "inputs": [
        {
          "indexed": false,
          "internalType": "address",
          "name": "voter",
          "type": "address"
        },
        {
          "indexed": false,
          "internalType": "string",
          "name": "message",
          "type": "string"
        }
      ],
      "name": "voteFailed",
      "type": "event"
    },
    {
      "inputs": [],
      "name": "description",
      "outputs": [
        {
          "internalType": "string",
          "name": "",
          "type": "string"
        }
      ],
      "stateMutability": "view",
      "type": "function"
    },
    {
      "inputs": [
        {
          "internalType": "address",
          "name": "candidate",
          "type": "address"
        }
      ],
      "name": "vote",
      "outputs": [],
      "stateMutability": "nonpayable",
      "type": "function"
    },
    {
      "inputs": [
        {
          "internalType": "address",
          "name": "candidate",
          "type": "address"
        }
      ],
      "name": "addCandidate",
      "outputs": [],
      "stateMutability": "nonpayable",
      "type": "function"
    }
  ],
  "bytecode": "0x608060405234801561001057600080fd5b506040518060800160405280604581526020016109ae604591396004908051906020019061003f929190610045565b50610149565b828054610051906100e8565b90600052602060002090601f01602090048101928261007357600085556100ba565b82601f1061008c57805160ff19168380011785556100ba565b828001600101855582156100ba579182015b828111156100b957825182559160200191906001019061009e565b5b5090506100c791906100cb565b5090565b5b808211156100e45760008160009055506001016100cc565b5090565b6000600282049050600182168061010057607f821691505b602082108114156101145761011361011a565b5b50919050565b7f4e487b7100000000000000000000000000000000000000000000000000000000600052602260045260246000fd5b610856806101586000396000f3fe608060405234801561001057600080fd5b50600436106100415760003560e01c80633acd75f8146100465780636dd7d8ea146100625780637284e4161461007e575b600080fd5b610060600480360381019061005b919061054b565b61009c565b005b61007c6004803603810190610077919061054b565b610256565b005b6100866104a8565b60405161009391906106a2565b60405180910390f35b8073ffffffffffffffffffffffffffffffffffffffff168173ffffffffffffffffffffffffffffffffffffffff16146100d457600080fd5b600160008273ffffffffffffffffffffffffffffffffffffffff1673ffffffffffffffffffffffffffffffffffffffff16815260200190815260200160002060009054906101000a900460ff1661021b5760018060008373ffffffffffffffffffffffffffffffffffffffff1673ffffffffffffffffffffffffffffffffffffffff16815260200190815260200160002060006101000a81548160ff0219169083151502179055506002819080600181540180825580915050600190039060005260206000200160009091909190916101000a81548173ffffffffffffffffffffffffffffffffffffffff021916908373ffffffffffffffffffffffffffffffffffffffff1602179055507f0bb71f709aa777936ac5c8fd7ffcc9c770345379e194e07e7dc26fe3c7416be38160405161020e9190610602565b60405180910390a1610253565b7f60026aee7dcdb9ccffdf383535c1feca07843a641292ac60c8523c04a56096fd8160405161024a9190610674565b60405180910390a15b50565b8073ffffffffffffffffffffffffffffffffffffffff168173ffffffffffffffffffffffffffffffffffffffff161461028e57600080fd5b6000339050600360008273ffffffffffffffffffffffffffffffffffffffff1673ffffffffffffffffffffffffffffffffffffffff16815260200190815260200160002060009054906101000a900460ff16610419576001600360008373ffffffffffffffffffffffffffffffffffffffff1673ffffffffffffffffffffffffffffffffffffffff16815260200190815260200160002060006101000a81548160ff0219169083151502179055506000808373ffffffffffffffffffffffffffffffffffffffff1673ffffffffffffffffffffffffffffffffffffffff168152602001908152602001600020819080600181540180825580915050600190039060005260206000200160009091909190916101000a81548173ffffffffffffffffffffffffffffffffffffffff021916908373ffffffffffffffffffffffffffffffffffffffff1602179055507f55f908c375c425a7e86f07347c4f0c54331f996f8801ba5abb9aecbd2aba4492818360405161040c92919061061d565b60405180910390a16104a4565b600360008273ffffffffffffffffffffffffffffffffffffffff1673ffffffffffffffffffffffffffffffffffffffff16815260200190815260200160002060009054906101000a900460ff16156104a3577f9f190a4ace0aaf447cf301da53e21b8f7876ad76758929285a2419410aa53b228160405161049a9190610646565b60405180910390a15b5b5050565b600480546104b590610745565b80601f01602080910402602001604051908101604052809291908181526020018280546104e190610745565b801561052e5780601f106105035761010080835404028352916020019161052e565b820191906000526020600020905b81548152906001019060200180831161051157829003601f168201915b505050505081565b60008135905061054581610809565b92915050565b60006020828403121561055d57600080fd5b600061056b84828501610536565b91505092915050565b61057d816106e0565b82525050565b600061058e826106c4565b61059881856106cf565b93506105a8818560208601610712565b6105b1816107a6565b840191505092915050565b60006105c9600d836106cf565b91506105d4826107b7565b602082019050919050565b60006105ec6013836106cf565b91506105f7826107e0565b602082019050919050565b60006020820190506106176000830184610574565b92915050565b60006040820190506106326000830185610574565b61063f6020830184610574565b9392505050565b600060408201905061065b6000830184610574565b818103602083015261066c816105bc565b905092915050565b60006040820190506106896000830184610574565b818103602083015261069a816105df565b905092915050565b600060208201905081810360008301526106bc8184610583565b905092915050565b600081519050919050565b600082825260208201905092915050565b60006106eb826106f2565b9050919050565b600073ffffffffffffffffffffffffffffffffffffffff82169050919050565b60005b83811015610730578082015181840152602081019050610715565b8381111561073f576000848401525b50505050565b6000600282049050600182168061075d57607f821691505b6020821081141561077157610770610777565b5b50919050565b7f4e487b7100000000000000000000000000000000000000000000000000000000600052602260045260246000fd5b6000601f19601f8301169050919050565b7f416c726561647920566f74656400000000000000000000000000000000000000600082015250565b7f416c726561647920612063616e64696461746500000000000000000000000000600082015250565b610812816106e0565b811461081d57600080fd5b5056fea264697066735822122013a0c7e66bfac56e2bee6d392403b0be6d9833f956f6290386e6cbd69840d30064736f6c634300080100334120766f74652068616e646c657220666f7220757365727320746f20766f7465206f6e2063616e646964617465732c2061646465642062792074686520636f6e7472616374",
  "immutableReferences": {},
  "source": "// SPDX-License-Identifier: UNLICENSED\n\npragma solidity >= 0.7.0 < 0.9.0;\n\ncontract VoteHandling {\n\tmapping (address => address[]) private voteMap;\n\tmapping (address => bool) private isCandidate;\n\taddress[] private candidates;\n\tmapping (address => bool) private voted;\n\taddress private constant EMPTY_ADDRESS = 0x0000000000000000000000000000000000000000;\n\tstring public description;\n\n\tconstructor() {\n\t\tdescription = \"A vote handler for users to vote on candidates, added by the contract\";\n\t}\n\n\tfunction vote(address candidate) public {\n\t\t// check if address is valid\n\t\trequire(candidate == address(candidate));\n\t\taddress voter = msg.sender;\n\t\n\t\t// append to candidates votes and voted\n\t\tif (!voted[voter]) {\n\t\t\tvoted[voter] = true; // initialized as false by default\n\t\t\tvoteMap[candidate].push(voter);\n\t\t\temit voteCast(voter, candidate);\n\t\t} else if (voted[voter]) {\n\t\t\temit voteFailed(voter, \"Already Voted\");\n\t\t}\n\t}\n\n\tfunction addCandidate(address candidate) public {\n\t\t// check if address is valid\t\n\t\trequire(candidate == address(candidate));\n\t\tif (!isCandidate[candidate]) {\n\t\t\tisCandidate[candidate] = true;\n\t\t\tcandidates.push(candidate);\n\t\t\temit candidateAdded(candidate);\n\t\t} else {\n\t\t\temit candidateFail(candidate, \"Already a candidate\");\n\t\t}\n\t}\n\n\tevent voteCast(address voter, address candidate); \n\tevent voteFailed(address voter, string message);\n\tevent candidateAdded(address candidate);\n\tevent candidateFail(address candidate, string message);\n}\n",
  "sourcePath": "/home/joakim/DAPP/VoteSysDapp/contracts/VoteHandling.sol",
  "compiler": {
    "name": "solc",
    "version": "0.8.1+commit.df193b15.Emscripten.clang"
  },
  "schemaVersion": "3.4.6",
  "updatedAt": "2022-03-29T02:17:51.910Z",
  "devdoc": {
    "kind": "dev",
    "methods": {},
    "version": 1
  },
  "userdoc": {
    "kind": "user",
    "methods": {},
    "version": 1
  }
}