{
  "contractName": "VoteHandling",
  "abi": [
    {
      "inputs": [],
      "stateMutability": "nonpayable",
      "type": "constructor"
    },
    {
      "anonymous": false,
      "inputs": [
        {
          "indexed": false,
          "internalType": "address",
          "name": "candidate",
          "type": "address"
        }
      ],
      "name": "candidateAdded",
      "type": "event"
    },
    {
      "anonymous": false,
      "inputs": [
        {
          "indexed": false,
          "internalType": "address",
          "name": "candidate",
          "type": "address"
        },
        {
          "indexed": false,
          "internalType": "string",
          "name": "message",
          "type": "string"
        }
      ],
      "name": "candidateFail",
      "type": "event"
    },
    {
      "anonymous": false,
      "inputs": [
        {
          "indexed": false,
          "internalType": "address",
          "name": "voter",
          "type": "address"
        },
        {
          "indexed": false,
          "internalType": "address",
          "name": "candidate",
          "type": "address"
        }
      ],
      "name": "voteCast",
      "type": "event"
    },
    {
      "anonymous": false,
      "inputs": [
        {
          "indexed": false,
          "internalType": "address",
          "name": "voter",
          "type": "address"
        },
        {
          "indexed": false,
          "internalType": "string",
          "name": "message",
          "type": "string"
        }
      ],
      "name": "voteFailed",
      "type": "event"
    },
    {
      "inputs": [
        {
          "internalType": "address",
          "name": "candidate",
          "type": "address"
        }
      ],
      "name": "vote",
      "outputs": [],
      "stateMutability": "nonpayable",
      "type": "function"
    },
    {
      "inputs": [
        {
          "internalType": "address",
          "name": "candidate",
          "type": "address"
        }
      ],
      "name": "addCandidate",
      "outputs": [],
      "stateMutability": "nonpayable",
      "type": "function"
    },
    {
      "inputs": [
        {
          "internalType": "address[]",
          "name": "nCandidates",
          "type": "address[]"
        }
      ],
      "name": "addCandidateList",
      "outputs": [],
      "stateMutability": "nonpayable",
      "type": "function"
    },
    {
      "inputs": [],
      "name": "getCandidates",
      "outputs": [
        {
          "internalType": "address[]",
          "name": "",
          "type": "address[]"
        }
      ],
      "stateMutability": "view",
      "type": "function",
      "constant": true
    },
    {
      "inputs": [
        {
          "internalType": "address",
          "name": "voter",
          "type": "address"
        }
      ],
      "name": "hasVoted",
      "outputs": [
        {
          "internalType": "bool",
          "name": "",
          "type": "bool"
        }
      ],
      "stateMutability": "view",
      "type": "function",
      "constant": true
    }
  ],
  "bytecode": "0x608060405234801561001057600080fd5b50610ba0806100206000396000f3fe608060405234801561001057600080fd5b50600436106100575760003560e01c806306a49fce1461005c57806309eef43e1461007a5780633acd75f8146100aa5780636dd7d8ea146100c6578063f495b782146100e2575b600080fd5b6100646100fe565b60405161007191906108f8565b60405180910390f35b610094600480360381019061008f9190610705565b61018c565b6040516100a1919061091a565b60405180910390f35b6100c460048036038101906100bf9190610705565b6101e2565b005b6100e060048036038101906100db9190610705565b61039c565b005b6100fc60048036038101906100f7919061072e565b6105ee565b005b6060600280548060200260200160405190810160405280929190818152602001828054801561018257602002820191906000526020600020905b8160009054906101000a900473ffffffffffffffffffffffffffffffffffffffff1673ffffffffffffffffffffffffffffffffffffffff1681526020019060010190808311610138575b5050505050905090565b6000600360008373ffffffffffffffffffffffffffffffffffffffff1673ffffffffffffffffffffffffffffffffffffffff16815260200190815260200160002060009054906101000a900460ff169050919050565b8073ffffffffffffffffffffffffffffffffffffffff168173ffffffffffffffffffffffffffffffffffffffff161461021a57600080fd5b600160008273ffffffffffffffffffffffffffffffffffffffff1673ffffffffffffffffffffffffffffffffffffffff16815260200190815260200160002060009054906101000a900460ff166103615760018060008373ffffffffffffffffffffffffffffffffffffffff1673ffffffffffffffffffffffffffffffffffffffff16815260200190815260200160002060006101000a81548160ff0219169083151502179055506002819080600181540180825580915050600190039060005260206000200160009091909190916101000a81548173ffffffffffffffffffffffffffffffffffffffff021916908373ffffffffffffffffffffffffffffffffffffffff1602179055507f0bb71f709aa777936ac5c8fd7ffcc9c770345379e194e07e7dc26fe3c7416be3816040516103549190610858565b60405180910390a1610399565b7f60026aee7dcdb9ccffdf383535c1feca07843a641292ac60c8523c04a56096fd8160405161039091906108ca565b60405180910390a15b50565b8073ffffffffffffffffffffffffffffffffffffffff168173ffffffffffffffffffffffffffffffffffffffff16146103d457600080fd5b6000339050600360008273ffffffffffffffffffffffffffffffffffffffff1673ffffffffffffffffffffffffffffffffffffffff16815260200190815260200160002060009054906101000a900460ff1661055f576001600360008373ffffffffffffffffffffffffffffffffffffffff1673ffffffffffffffffffffffffffffffffffffffff16815260200190815260200160002060006101000a81548160ff0219169083151502179055506000808373ffffffffffffffffffffffffffffffffffffffff1673ffffffffffffffffffffffffffffffffffffffff168152602001908152602001600020819080600181540180825580915050600190039060005260206000200160009091909190916101000a81548173ffffffffffffffffffffffffffffffffffffffff021916908373ffffffffffffffffffffffffffffffffffffffff1602179055507f55f908c375c425a7e86f07347c4f0c54331f996f8801ba5abb9aecbd2aba44928183604051610552929190610873565b60405180910390a16105ea565b600360008273ffffffffffffffffffffffffffffffffffffffff1673ffffffffffffffffffffffffffffffffffffffff16815260200190815260200160002060009054906101000a900460ff16156105e9577f9f190a4ace0aaf447cf301da53e21b8f7876ad76758929285a2419410aa53b22816040516105e0919061089c565b60405180910390a15b5b5050565b60005b815181101561065657610643828281518110610636577f4e487b7100000000000000000000000000000000000000000000000000000000600052603260045260246000fd5b60200260200101516101e2565b808061064e90610a49565b9150506105f1565b5050565b600061066d6106688461095a565b610935565b9050808382526020820190508285602086028201111561068c57600080fd5b60005b858110156106bc57816106a288826106c6565b84526020840193506020830192505060018101905061068f565b5050509392505050565b6000813590506106d581610b53565b92915050565b600082601f8301126106ec57600080fd5b81356106fc84826020860161065a565b91505092915050565b60006020828403121561071757600080fd5b6000610725848285016106c6565b91505092915050565b60006020828403121561074057600080fd5b600082013567ffffffffffffffff81111561075a57600080fd5b610766848285016106db565b91505092915050565b600061077b8383610787565b60208301905092915050565b610790816109d0565b82525050565b61079f816109d0565b82525050565b60006107b082610996565b6107ba81856109ae565b93506107c583610986565b8060005b838110156107f65781516107dd888261076f565b97506107e8836109a1565b9250506001810190506107c9565b5085935050505092915050565b61080c816109e2565b82525050565b600061081f600d836109bf565b915061082a82610b01565b602082019050919050565b60006108426013836109bf565b915061084d82610b2a565b602082019050919050565b600060208201905061086d6000830184610796565b92915050565b60006040820190506108886000830185610796565b6108956020830184610796565b9392505050565b60006040820190506108b16000830184610796565b81810360208301526108c281610812565b905092915050565b60006040820190506108df6000830184610796565b81810360208301526108f081610835565b905092915050565b6000602082019050818103600083015261091281846107a5565b905092915050565b600060208201905061092f6000830184610803565b92915050565b600061093f610950565b905061094b8282610a18565b919050565b6000604051905090565b600067ffffffffffffffff82111561097557610974610ac1565b5b602082029050602081019050919050565b6000819050602082019050919050565b600081519050919050565b6000602082019050919050565b600082825260208201905092915050565b600082825260208201905092915050565b60006109db826109ee565b9050919050565b60008115159050919050565b600073ffffffffffffffffffffffffffffffffffffffff82169050919050565b6000819050919050565b610a2182610af0565b810181811067ffffffffffffffff82111715610a4057610a3f610ac1565b5b80604052505050565b6000610a5482610a0e565b91507fffffffffffffffffffffffffffffffffffffffffffffffffffffffffffffffff821415610a8757610a86610a92565b5b600182019050919050565b7f4e487b7100000000000000000000000000000000000000000000000000000000600052601160045260246000fd5b7f4e487b7100000000000000000000000000000000000000000000000000000000600052604160045260246000fd5b6000601f19601f8301169050919050565b7f416c726561647920566f74656400000000000000000000000000000000000000600082015250565b7f416c726561647920612063616e64696461746500000000000000000000000000600082015250565b610b5c816109d0565b8114610b6757600080fd5b5056fea26469706673582212202a6f11d1a5679f7a09ffebc55f2d32a79eea13719e6f137966cd0cdd783cdee064736f6c63430008010033",
  "immutableReferences": {},
  "source": "// SPDX-License-Identifier: UNLICENSED\n\npragma solidity >= 0.7.0 < 0.9.0;\n\ncontract VoteHandling {\n\tmapping (address => address[]) private voteMap; // who has vote for whom\n\tmapping (address => bool) private isCandidate; \n\taddress[] private candidates;\n\tmapping (address => bool) private voted;\n\n\tconstructor() {}\n\n\tfunction vote(address candidate) public {\n\t\t// check if address is valid\n\t\trequire(candidate == address(candidate));\n\t\taddress voter = msg.sender;\n\t\n\t\t// append to candidates votes and voted\n\t\tif (!voted[voter]) {\n\t\t\tvoted[voter] = true; // initialized as false by default\n\t\t\tvoteMap[candidate].push(voter);\n\t\t\temit voteCast(voter, candidate);\n\t\t} else if (voted[voter]) {\n\t\t\temit voteFailed(voter, \"Already Voted\");\n\t\t}\n\t}\n\n\tfunction addCandidate(address candidate) public {\n\t\t// check if address is valid\t\n\t\trequire(candidate == address(candidate));\n\t\tif (!isCandidate[candidate]) {\n\t\t\tisCandidate[candidate] = true;\n\t\t\tcandidates.push(candidate);\n\t\t\temit candidateAdded(candidate);\n\t\t} else {\n\t\t\temit candidateFail(candidate, \"Already a candidate\");\n\t\t}\n\t}\n\n\tfunction addCandidateList(address[] memory nCandidates) public {\n\t\tfor (uint i = 0; i < nCandidates.length; i++) {\n\t\t\taddCandidate(nCandidates[i]);\n\t\t}\n\t}\n\t\n\tfunction getCandidates() public view returns (address[] memory) {\n\t\treturn candidates;\n\t}\n\n\tfunction hasVoted(address voter) public view returns (bool) {\n\t\treturn voted[voter];\n\t} \n\n\n\tevent voteCast(address voter, address candidate); \n\tevent voteFailed(address voter, string message);\n\tevent candidateAdded(address candidate);\n\tevent candidateFail(address candidate, string message);\n}\n",
  "sourcePath": "/home/joakim/DAPP/VoteSysDapp/contracts/VoteHandling.sol",
  "compiler": {
    "name": "solc",
    "version": "0.8.1+commit.df193b15.Emscripten.clang"
  },
  "schemaVersion": "3.4.6",
  "updatedAt": "2022-04-04T14:22:01.015Z",
  "networkType": "ethereum",
  "devdoc": {
    "kind": "dev",
    "methods": {},
    "version": 1
  },
  "userdoc": {
    "kind": "user",
    "methods": {},
    "version": 1
  }
}