{
  "contractName": "VoteHandling",
  "abi": [
    {
      "inputs": [],
      "stateMutability": "nonpayable",
      "type": "constructor"
    },
    {
      "anonymous": false,
      "inputs": [
        {
          "indexed": false,
          "internalType": "address",
          "name": "candidate",
          "type": "address"
        }
      ],
      "name": "candidateAdded",
      "type": "event"
    },
    {
      "anonymous": false,
      "inputs": [
        {
          "indexed": false,
          "internalType": "address",
          "name": "candidate",
          "type": "address"
        },
        {
          "indexed": false,
          "internalType": "string",
          "name": "message",
          "type": "string"
        }
      ],
      "name": "candidateFail",
      "type": "event"
    },
    {
      "anonymous": false,
      "inputs": [
        {
          "indexed": false,
          "internalType": "address",
          "name": "voter",
          "type": "address"
        },
        {
          "indexed": false,
          "internalType": "address",
          "name": "candidate",
          "type": "address"
        }
      ],
      "name": "voteCast",
      "type": "event"
    },
    {
      "anonymous": false,
      "inputs": [
        {
          "indexed": false,
          "internalType": "address",
          "name": "voter",
          "type": "address"
        },
        {
          "indexed": false,
          "internalType": "string",
          "name": "message",
          "type": "string"
        }
      ],
      "name": "voteFailed",
      "type": "event"
    },
    {
      "inputs": [
        {
          "internalType": "address",
          "name": "candidate",
          "type": "address"
        }
      ],
      "name": "vote",
      "outputs": [],
      "stateMutability": "nonpayable",
      "type": "function"
    },
    {
      "inputs": [
        {
          "internalType": "address",
          "name": "candidate",
          "type": "address"
        }
      ],
      "name": "addCandidate",
      "outputs": [],
      "stateMutability": "nonpayable",
      "type": "function"
    },
    {
      "inputs": [
        {
          "internalType": "address[]",
          "name": "_candidates",
          "type": "address[]"
        }
      ],
      "name": "addCandidateList",
      "outputs": [],
      "stateMutability": "nonpayable",
      "type": "function"
    },
    {
      "inputs": [],
      "name": "getCandidates",
      "outputs": [
        {
          "internalType": "address[]",
          "name": "",
          "type": "address[]"
        }
      ],
      "stateMutability": "view",
      "type": "function",
      "constant": true
    },
    {
      "inputs": [
        {
          "internalType": "address",
          "name": "voter",
          "type": "address"
        }
      ],
      "name": "hasVoted",
      "outputs": [
        {
          "internalType": "bool",
          "name": "",
          "type": "bool"
        }
      ],
      "stateMutability": "view",
      "type": "function",
      "constant": true
    },
    {
      "inputs": [],
      "name": "getVotes",
      "outputs": [
        {
          "internalType": "uint256[]",
          "name": "",
          "type": "uint256[]"
        }
      ],
      "stateMutability": "view",
      "type": "function",
      "constant": true
    }
  ],
  "bytecode": "0x608060405234801561001057600080fd5b50610e39806100206000396000f3fe608060405234801561001057600080fd5b50600436106100625760003560e01c806306a49fce1461006757806309eef43e146100855780630dc96015146100b55780633acd75f8146100d35780636dd7d8ea146100ef578063f495b7821461010b575b600080fd5b61006f610127565b60405161007c9190610b36565b60405180910390f35b61009f600480360381019061009a91906108be565b6101b5565b6040516100ac9190610b7a565b60405180910390f35b6100bd61020b565b6040516100ca9190610b58565b60405180910390f35b6100ed60048036038101906100e891906108be565b61039b565b005b610109600480360381019061010491906108be565b610555565b005b610125600480360381019061012091906108e7565b6107a7565b005b606060028054806020026020016040519081016040528092919081815260200182805480156101ab57602002820191906000526020600020905b8160009054906101000a900473ffffffffffffffffffffffffffffffffffffffff1673ffffffffffffffffffffffffffffffffffffffff1681526020019060010190808311610161575b5050505050905090565b6000600360008373ffffffffffffffffffffffffffffffffffffffff1673ffffffffffffffffffffffffffffffffffffffff16815260200190815260200160002060009054906101000a900460ff169050919050565b6060600060028054905067ffffffffffffffff811115610254577f4e487b7100000000000000000000000000000000000000000000000000000000600052604160045260246000fd5b6040519080825280602002602001820160405280156102825781602001602082028036833780820191505090505b50905060005b60028054905081101561039357600080600283815481106102d2577f4e487b7100000000000000000000000000000000000000000000000000000000600052603260045260246000fd5b9060005260206000200160009054906101000a900473ffffffffffffffffffffffffffffffffffffffff1673ffffffffffffffffffffffffffffffffffffffff1673ffffffffffffffffffffffffffffffffffffffff16815260200190815260200160002080549050828281518110610374577f4e487b7100000000000000000000000000000000000000000000000000000000600052603260045260246000fd5b602002602001018181525050808061038b90610ce2565b915050610288565b508091505090565b8073ffffffffffffffffffffffffffffffffffffffff168173ffffffffffffffffffffffffffffffffffffffff16146103d357600080fd5b600160008273ffffffffffffffffffffffffffffffffffffffff1673ffffffffffffffffffffffffffffffffffffffff16815260200190815260200160002060009054906101000a900460ff1661051a5760018060008373ffffffffffffffffffffffffffffffffffffffff1673ffffffffffffffffffffffffffffffffffffffff16815260200190815260200160002060006101000a81548160ff0219169083151502179055506002819080600181540180825580915050600190039060005260206000200160009091909190916101000a81548173ffffffffffffffffffffffffffffffffffffffff021916908373ffffffffffffffffffffffffffffffffffffffff1602179055507f0bb71f709aa777936ac5c8fd7ffcc9c770345379e194e07e7dc26fe3c7416be38160405161050d9190610a96565b60405180910390a1610552565b7f60026aee7dcdb9ccffdf383535c1feca07843a641292ac60c8523c04a56096fd816040516105499190610b08565b60405180910390a15b50565b8073ffffffffffffffffffffffffffffffffffffffff168173ffffffffffffffffffffffffffffffffffffffff161461058d57600080fd5b6000339050600360008273ffffffffffffffffffffffffffffffffffffffff1673ffffffffffffffffffffffffffffffffffffffff16815260200190815260200160002060009054906101000a900460ff16610718576001600360008373ffffffffffffffffffffffffffffffffffffffff1673ffffffffffffffffffffffffffffffffffffffff16815260200190815260200160002060006101000a81548160ff0219169083151502179055506000808373ffffffffffffffffffffffffffffffffffffffff1673ffffffffffffffffffffffffffffffffffffffff168152602001908152602001600020819080600181540180825580915050600190039060005260206000200160009091909190916101000a81548173ffffffffffffffffffffffffffffffffffffffff021916908373ffffffffffffffffffffffffffffffffffffffff1602179055507f55f908c375c425a7e86f07347c4f0c54331f996f8801ba5abb9aecbd2aba4492818360405161070b929190610ab1565b60405180910390a16107a3565b600360008273ffffffffffffffffffffffffffffffffffffffff1673ffffffffffffffffffffffffffffffffffffffff16815260200190815260200160002060009054906101000a900460ff16156107a2577f9f190a4ace0aaf447cf301da53e21b8f7876ad76758929285a2419410aa53b22816040516107999190610ada565b60405180910390a15b5b5050565b60005b815181101561080f576107fc8282815181106107ef577f4e487b7100000000000000000000000000000000000000000000000000000000600052603260045260246000fd5b602002602001015161039b565b808061080790610ce2565b9150506107aa565b5050565b600061082661082184610bba565b610b95565b9050808382526020820190508285602086028201111561084557600080fd5b60005b85811015610875578161085b888261087f565b845260208401935060208301925050600181019050610848565b5050509392505050565b60008135905061088e81610dec565b92915050565b600082601f8301126108a557600080fd5b81356108b5848260208601610813565b91505092915050565b6000602082840312156108d057600080fd5b60006108de8482850161087f565b91505092915050565b6000602082840312156108f957600080fd5b600082013567ffffffffffffffff81111561091357600080fd5b61091f84828501610894565b91505092915050565b60006109348383610958565b60208301905092915050565b600061094c8383610a87565b60208301905092915050565b61096181610c69565b82525050565b61097081610c69565b82525050565b600061098182610c06565b61098b8185610c36565b935061099683610be6565b8060005b838110156109c75781516109ae8882610928565b97506109b983610c1c565b92505060018101905061099a565b5085935050505092915050565b60006109df82610c11565b6109e98185610c47565b93506109f483610bf6565b8060005b83811015610a25578151610a0c8882610940565b9750610a1783610c29565b9250506001810190506109f8565b5085935050505092915050565b610a3b81610c7b565b82525050565b6000610a4e600d83610c58565b9150610a5982610d9a565b602082019050919050565b6000610a71601383610c58565b9150610a7c82610dc3565b602082019050919050565b610a9081610ca7565b82525050565b6000602082019050610aab6000830184610967565b92915050565b6000604082019050610ac66000830185610967565b610ad36020830184610967565b9392505050565b6000604082019050610aef6000830184610967565b8181036020830152610b0081610a41565b905092915050565b6000604082019050610b1d6000830184610967565b8181036020830152610b2e81610a64565b905092915050565b60006020820190508181036000830152610b508184610976565b905092915050565b60006020820190508181036000830152610b7281846109d4565b905092915050565b6000602082019050610b8f6000830184610a32565b92915050565b6000610b9f610bb0565b9050610bab8282610cb1565b919050565b6000604051905090565b600067ffffffffffffffff821115610bd557610bd4610d5a565b5b602082029050602081019050919050565b6000819050602082019050919050565b6000819050602082019050919050565b600081519050919050565b600081519050919050565b6000602082019050919050565b6000602082019050919050565b600082825260208201905092915050565b600082825260208201905092915050565b600082825260208201905092915050565b6000610c7482610c87565b9050919050565b60008115159050919050565b600073ffffffffffffffffffffffffffffffffffffffff82169050919050565b6000819050919050565b610cba82610d89565b810181811067ffffffffffffffff82111715610cd957610cd8610d5a565b5b80604052505050565b6000610ced82610ca7565b91507fffffffffffffffffffffffffffffffffffffffffffffffffffffffffffffffff821415610d2057610d1f610d2b565b5b600182019050919050565b7f4e487b7100000000000000000000000000000000000000000000000000000000600052601160045260246000fd5b7f4e487b7100000000000000000000000000000000000000000000000000000000600052604160045260246000fd5b6000601f19601f8301169050919050565b7f416c726561647920566f74656400000000000000000000000000000000000000600082015250565b7f416c726561647920612063616e64696461746500000000000000000000000000600082015250565b610df581610c69565b8114610e0057600080fd5b5056fea2646970667358221220482076d966a1057e88933c041137c7bb3dc8a802c3525a6d0e6cd069bcfdd5c164736f6c63430008010033",
  "immutableReferences": {},
  "source": "// SPDX-License-Identifier: UNLICENSED\n\npragma solidity >= 0.7.0 < 0.9.0;\n\nimport \"@openzeppelin/contracts/utils/Strings.sol\";\n\ncontract VoteHandling {\n\tmapping (address => address[]) private voteMap; // who has vote for whom\n\tmapping (address => bool) private isCandidate; \n\taddress[] private candidates;\n\tmapping (address => bool) private voted;\n\n\tconstructor() {}\n\n\tfunction vote(address candidate) public {\n\t\t// check if address is valid\n\t\trequire(candidate == address(candidate));\n\t\taddress voter = msg.sender;\n\t\n\t\t// append to candidates votes and voted\n\t\tif (!voted[voter]) {\n\t\t\tvoted[voter] = true; // initialized as false by default\n\t\t\tvoteMap[candidate].push(voter);\n\t\t\temit voteCast(voter, candidate);\n\t\t} else if (voted[voter]) {\n\t\t\temit voteFailed(voter, \"Already Voted\");\n\t\t}\n\t}\n\n\tfunction addCandidate(address candidate) public {\n\t\t// check if address is valid\t\n\t\trequire(candidate == address(candidate));\n\t\tif (!isCandidate[candidate]) {\n\t\t\tisCandidate[candidate] = true;\n\t\t\tcandidates.push(candidate);\n\t\t\temit candidateAdded(candidate);\n\t\t} else {\n\t\t\temit candidateFail(candidate, \"Already a candidate\");\n\t\t}\n\t}\n\t\n\tfunction addCandidateList(address[] memory _candidates) public {\n\t\tfor (uint i = 0; i < _candidates.length; i++) {\n\t\t\taddCandidate(_candidates[i]);\n\t\t}\n\t}\n\t\n\tfunction getCandidates() public view returns (address[] memory) {\n\t\treturn candidates;\n\t}\n\n\tfunction hasVoted(address voter) public view returns (bool) {\n\t\treturn voted[voter];\n\t}\n\n\tfunction getVotes() public view returns (uint[] memory) {\n\t\tuint[] memory voteCount = new uint[](candidates.length);\n\t\tfor (uint i = 0; i < candidates.length; i++) {\n\t\t\t//voteCount[i] = Strings.toString(voteMap[candidates[i]].length);\n\t\t\tvoteCount[i] = voteMap[candidates[i]].length;\n\t\t}\n\t\treturn voteCount;\n\t}\n\n\n\tevent voteCast(address voter, address candidate); \n\tevent voteFailed(address voter, string message);\n\tevent candidateAdded(address candidate);\n\tevent candidateFail(address candidate, string message);\n}\n",
  "sourcePath": "/home/joakim/DAPP/VoteSysDapp/contracts/VoteHandling.sol",
  "compiler": {
    "name": "solc",
    "version": "0.8.1+commit.df193b15.Emscripten.clang"
  },
  "schemaVersion": "3.4.6",
  "updatedAt": "2022-04-12T00:36:03.470Z",
  "networkType": "ethereum",
  "devdoc": {
    "kind": "dev",
    "methods": {},
    "version": 1
  },
  "userdoc": {
    "kind": "user",
    "methods": {},
    "version": 1
  }
}