{
  "contractName": "VoteHandling",
  "abi": [
    {
      "inputs": [],
      "stateMutability": "nonpayable",
      "type": "constructor"
    },
    {
      "anonymous": false,
      "inputs": [
        {
          "indexed": false,
          "internalType": "address",
          "name": "candidate",
          "type": "address"
        }
      ],
      "name": "candidateAdded",
      "type": "event"
    },
    {
      "anonymous": false,
      "inputs": [
        {
          "indexed": false,
          "internalType": "address",
          "name": "candidate",
          "type": "address"
        },
        {
          "indexed": false,
          "internalType": "string",
          "name": "message",
          "type": "string"
        }
      ],
      "name": "candidateFail",
      "type": "event"
    },
    {
      "anonymous": false,
      "inputs": [
        {
          "indexed": false,
          "internalType": "address",
          "name": "voter",
          "type": "address"
        },
        {
          "indexed": false,
          "internalType": "address",
          "name": "candidate",
          "type": "address"
        }
      ],
      "name": "voteCast",
      "type": "event"
    },
    {
      "anonymous": false,
      "inputs": [
        {
          "indexed": false,
          "internalType": "address",
          "name": "voter",
          "type": "address"
        },
        {
          "indexed": false,
          "internalType": "string",
          "name": "message",
          "type": "string"
        }
      ],
      "name": "voteFailed",
      "type": "event"
    },
    {
      "inputs": [],
      "name": "description",
      "outputs": [
        {
          "internalType": "string",
          "name": "",
          "type": "string"
        }
      ],
      "stateMutability": "view",
      "type": "function"
    },
    {
      "inputs": [
        {
          "internalType": "address",
          "name": "candidate",
          "type": "address"
        }
      ],
      "name": "vote",
      "outputs": [],
      "stateMutability": "nonpayable",
      "type": "function"
    },
    {
      "inputs": [
        {
          "internalType": "address",
          "name": "candidate",
          "type": "address"
        }
      ],
      "name": "addCandidate",
      "outputs": [],
      "stateMutability": "nonpayable",
      "type": "function"
    },
    {
      "inputs": [],
      "name": "getCandidates",
      "outputs": [
        {
          "internalType": "address[]",
          "name": "",
          "type": "address[]"
        }
      ],
      "stateMutability": "view",
      "type": "function"
    }
  ],
  "bytecode": "0x608060405234801561001057600080fd5b50604051806080016040528060458152602001610b45604591396004908051906020019061003f929190610045565b50610149565b828054610051906100e8565b90600052602060002090601f01602090048101928261007357600085556100ba565b82601f1061008c57805160ff19168380011785556100ba565b828001600101855582156100ba579182015b828111156100b957825182559160200191906001019061009e565b5b5090506100c791906100cb565b5090565b5b808211156100e45760008160009055506001016100cc565b5090565b6000600282049050600182168061010057607f821691505b602082108114156101145761011361011a565b5b50919050565b7f4e487b7100000000000000000000000000000000000000000000000000000000600052602260045260246000fd5b6109ed806101586000396000f3fe608060405234801561001057600080fd5b506004361061004c5760003560e01c806306a49fce146100515780633acd75f81461006f5780636dd7d8ea1461008b5780637284e416146100a7575b600080fd5b6100596100c5565b60405161006691906107de565b60405180910390f35b61008960048036038101906100849190610602565b610153565b005b6100a560048036038101906100a09190610602565b61030d565b005b6100af61055f565b6040516100bc9190610800565b60405180910390f35b6060600280548060200260200160405190810160405280929190818152602001828054801561014957602002820191906000526020600020905b8160009054906101000a900473ffffffffffffffffffffffffffffffffffffffff1673ffffffffffffffffffffffffffffffffffffffff16815260200190600101908083116100ff575b5050505050905090565b8073ffffffffffffffffffffffffffffffffffffffff168173ffffffffffffffffffffffffffffffffffffffff161461018b57600080fd5b600160008273ffffffffffffffffffffffffffffffffffffffff1673ffffffffffffffffffffffffffffffffffffffff16815260200190815260200160002060009054906101000a900460ff166102d25760018060008373ffffffffffffffffffffffffffffffffffffffff1673ffffffffffffffffffffffffffffffffffffffff16815260200190815260200160002060006101000a81548160ff0219169083151502179055506002819080600181540180825580915050600190039060005260206000200160009091909190916101000a81548173ffffffffffffffffffffffffffffffffffffffff021916908373ffffffffffffffffffffffffffffffffffffffff1602179055507f0bb71f709aa777936ac5c8fd7ffcc9c770345379e194e07e7dc26fe3c7416be3816040516102c5919061073e565b60405180910390a161030a565b7f60026aee7dcdb9ccffdf383535c1feca07843a641292ac60c8523c04a56096fd8160405161030191906107b0565b60405180910390a15b50565b8073ffffffffffffffffffffffffffffffffffffffff168173ffffffffffffffffffffffffffffffffffffffff161461034557600080fd5b6000339050600360008273ffffffffffffffffffffffffffffffffffffffff1673ffffffffffffffffffffffffffffffffffffffff16815260200190815260200160002060009054906101000a900460ff166104d0576001600360008373ffffffffffffffffffffffffffffffffffffffff1673ffffffffffffffffffffffffffffffffffffffff16815260200190815260200160002060006101000a81548160ff0219169083151502179055506000808373ffffffffffffffffffffffffffffffffffffffff1673ffffffffffffffffffffffffffffffffffffffff168152602001908152602001600020819080600181540180825580915050600190039060005260206000200160009091909190916101000a81548173ffffffffffffffffffffffffffffffffffffffff021916908373ffffffffffffffffffffffffffffffffffffffff1602179055507f55f908c375c425a7e86f07347c4f0c54331f996f8801ba5abb9aecbd2aba449281836040516104c3929190610759565b60405180910390a161055b565b600360008273ffffffffffffffffffffffffffffffffffffffff1673ffffffffffffffffffffffffffffffffffffffff16815260200190815260200160002060009054906101000a900460ff161561055a577f9f190a4ace0aaf447cf301da53e21b8f7876ad76758929285a2419410aa53b22816040516105519190610782565b60405180910390a15b5b5050565b6004805461056c906108dc565b80601f0160208091040260200160405190810160405280929190818152602001828054610598906108dc565b80156105e55780601f106105ba576101008083540402835291602001916105e5565b820191906000526020600020905b8154815290600101906020018083116105c857829003601f168201915b505050505081565b6000813590506105fc816109a0565b92915050565b60006020828403121561061457600080fd5b6000610622848285016105ed565b91505092915050565b60006106378383610643565b60208301905092915050565b61064c81610877565b82525050565b61065b81610877565b82525050565b600061066c82610832565b6106768185610855565b935061068183610822565b8060005b838110156106b2578151610699888261062b565b97506106a483610848565b925050600181019050610685565b5085935050505092915050565b60006106ca8261083d565b6106d48185610866565b93506106e48185602086016108a9565b6106ed8161093d565b840191505092915050565b6000610705600d83610866565b91506107108261094e565b602082019050919050565b6000610728601383610866565b915061073382610977565b602082019050919050565b60006020820190506107536000830184610652565b92915050565b600060408201905061076e6000830185610652565b61077b6020830184610652565b9392505050565b60006040820190506107976000830184610652565b81810360208301526107a8816106f8565b905092915050565b60006040820190506107c56000830184610652565b81810360208301526107d68161071b565b905092915050565b600060208201905081810360008301526107f88184610661565b905092915050565b6000602082019050818103600083015261081a81846106bf565b905092915050565b6000819050602082019050919050565b600081519050919050565b600081519050919050565b6000602082019050919050565b600082825260208201905092915050565b600082825260208201905092915050565b600061088282610889565b9050919050565b600073ffffffffffffffffffffffffffffffffffffffff82169050919050565b60005b838110156108c75780820151818401526020810190506108ac565b838111156108d6576000848401525b50505050565b600060028204905060018216806108f457607f821691505b602082108114156109085761090761090e565b5b50919050565b7f4e487b7100000000000000000000000000000000000000000000000000000000600052602260045260246000fd5b6000601f19601f8301169050919050565b7f416c726561647920566f74656400000000000000000000000000000000000000600082015250565b7f416c726561647920612063616e64696461746500000000000000000000000000600082015250565b6109a981610877565b81146109b457600080fd5b5056fea26469706673582212203e07700936fa603a7e12b639c7104661035a0cc86b3d067fd8e933a594fcf61664736f6c634300080100334120766f74652068616e646c657220666f7220757365727320746f20766f7465206f6e2063616e646964617465732c2061646465642062792074686520636f6e7472616374",
  "immutableReferences": {},
  "source": "// SPDX-License-Identifier: UNLICENSED\n\npragma solidity >= 0.7.0 < 0.9.0;\n\ncontract VoteHandling {\n\tmapping (address => address[]) private voteMap;\n\tmapping (address => bool) private isCandidate;\n\taddress[] private candidates;\n\tmapping (address => bool) private voted;\n\tstring public description;\n\n\tconstructor() {\n\t\tdescription = \"A vote handler for users to vote on candidates, added by the contract\";\n\t}\n\n\tfunction vote(address candidate) public {\n\t\t// check if address is valid\n\t\trequire(candidate == address(candidate));\n\t\taddress voter = msg.sender;\n\t\n\t\t// append to candidates votes and voted\n\t\tif (!voted[voter]) {\n\t\t\tvoted[voter] = true; // initialized as false by default\n\t\t\tvoteMap[candidate].push(voter);\n\t\t\temit voteCast(voter, candidate);\n\t\t} else if (voted[voter]) {\n\t\t\temit voteFailed(voter, \"Already Voted\");\n\t\t}\n\t}\n\n\tfunction addCandidate(address candidate) public {\n\t\t// check if address is valid\t\n\t\trequire(candidate == address(candidate));\n\t\tif (!isCandidate[candidate]) {\n\t\t\tisCandidate[candidate] = true;\n\t\t\tcandidates.push(candidate);\n\t\t\temit candidateAdded(candidate);\n\t\t} else {\n\t\t\temit candidateFail(candidate, \"Already a candidate\");\n\t\t}\n\t}\n\t\n\tfunction getCandidates() public view returns (address[] memory) {\n\t\treturn candidates;\n\t}\n\n\tevent voteCast(address voter, address candidate); \n\tevent voteFailed(address voter, string message);\n\tevent candidateAdded(address candidate);\n\tevent candidateFail(address candidate, string message);\n}\n",
  "sourcePath": "/home/joakim/DAPP/VoteSysDapp/contracts/VoteHandling.sol",
  "compiler": {
    "name": "solc",
    "version": "0.8.1+commit.df193b15.Emscripten.clang"
  },
  "schemaVersion": "3.4.6",
  "updatedAt": "2022-03-30T01:45:33.046Z",
  "devdoc": {
    "kind": "dev",
    "methods": {},
    "version": 1
  },
  "userdoc": {
    "kind": "user",
    "methods": {},
    "version": 1
  }
}