{
  "contractName": "VoteHandling",
  "abi": [
    {
      "inputs": [],
      "stateMutability": "nonpayable",
      "type": "constructor"
    },
    {
      "anonymous": false,
      "inputs": [
        {
          "indexed": false,
          "internalType": "address",
          "name": "candidate",
          "type": "address"
        }
      ],
      "name": "candidateAdded",
      "type": "event"
    },
    {
      "anonymous": false,
      "inputs": [
        {
          "indexed": false,
          "internalType": "address",
          "name": "candidate",
          "type": "address"
        },
        {
          "indexed": false,
          "internalType": "string",
          "name": "message",
          "type": "string"
        }
      ],
      "name": "candidateFail",
      "type": "event"
    },
    {
      "anonymous": false,
      "inputs": [
        {
          "indexed": false,
          "internalType": "address",
          "name": "voter",
          "type": "address"
        },
        {
          "indexed": false,
          "internalType": "address",
          "name": "candidate",
          "type": "address"
        }
      ],
      "name": "voteCast",
      "type": "event"
    },
    {
      "anonymous": false,
      "inputs": [
        {
          "indexed": false,
          "internalType": "address",
          "name": "voter",
          "type": "address"
        },
        {
          "indexed": false,
          "internalType": "string",
          "name": "message",
          "type": "string"
        }
      ],
      "name": "voteFailed",
      "type": "event"
    },
    {
      "inputs": [
        {
          "internalType": "address",
          "name": "candidate",
          "type": "address"
        }
      ],
      "name": "vote",
      "outputs": [],
      "stateMutability": "nonpayable",
      "type": "function"
    },
    {
      "inputs": [
        {
          "internalType": "address",
          "name": "candidate",
          "type": "address"
        }
      ],
      "name": "addCandidate",
      "outputs": [],
      "stateMutability": "nonpayable",
      "type": "function"
    },
    {
      "inputs": [
        {
          "internalType": "address[]",
          "name": "nCandidates",
          "type": "address[]"
        }
      ],
      "name": "addCandidateList",
      "outputs": [],
      "stateMutability": "nonpayable",
      "type": "function"
    },
    {
      "inputs": [],
      "name": "getCandidates",
      "outputs": [
        {
          "internalType": "address[]",
          "name": "",
          "type": "address[]"
        }
      ],
      "stateMutability": "view",
      "type": "function",
      "constant": true
    }
  ],
  "bytecode": "0x608060405234801561001057600080fd5b50610ad9806100206000396000f3fe608060405234801561001057600080fd5b506004361061004c5760003560e01c806306a49fce146100515780633acd75f81461006f5780636dd7d8ea1461008b578063f495b782146100a7575b600080fd5b6100596100c3565b6040516100669190610858565b60405180910390f35b61008960048036038101906100849190610674565b610151565b005b6100a560048036038101906100a09190610674565b61030b565b005b6100c160048036038101906100bc919061069d565b61055d565b005b6060600280548060200260200160405190810160405280929190818152602001828054801561014757602002820191906000526020600020905b8160009054906101000a900473ffffffffffffffffffffffffffffffffffffffff1673ffffffffffffffffffffffffffffffffffffffff16815260200190600101908083116100fd575b5050505050905090565b8073ffffffffffffffffffffffffffffffffffffffff168173ffffffffffffffffffffffffffffffffffffffff161461018957600080fd5b600160008273ffffffffffffffffffffffffffffffffffffffff1673ffffffffffffffffffffffffffffffffffffffff16815260200190815260200160002060009054906101000a900460ff166102d05760018060008373ffffffffffffffffffffffffffffffffffffffff1673ffffffffffffffffffffffffffffffffffffffff16815260200190815260200160002060006101000a81548160ff0219169083151502179055506002819080600181540180825580915050600190039060005260206000200160009091909190916101000a81548173ffffffffffffffffffffffffffffffffffffffff021916908373ffffffffffffffffffffffffffffffffffffffff1602179055507f0bb71f709aa777936ac5c8fd7ffcc9c770345379e194e07e7dc26fe3c7416be3816040516102c391906107b8565b60405180910390a1610308565b7f60026aee7dcdb9ccffdf383535c1feca07843a641292ac60c8523c04a56096fd816040516102ff919061082a565b60405180910390a15b50565b8073ffffffffffffffffffffffffffffffffffffffff168173ffffffffffffffffffffffffffffffffffffffff161461034357600080fd5b6000339050600360008273ffffffffffffffffffffffffffffffffffffffff1673ffffffffffffffffffffffffffffffffffffffff16815260200190815260200160002060009054906101000a900460ff166104ce576001600360008373ffffffffffffffffffffffffffffffffffffffff1673ffffffffffffffffffffffffffffffffffffffff16815260200190815260200160002060006101000a81548160ff0219169083151502179055506000808373ffffffffffffffffffffffffffffffffffffffff1673ffffffffffffffffffffffffffffffffffffffff168152602001908152602001600020819080600181540180825580915050600190039060005260206000200160009091909190916101000a81548173ffffffffffffffffffffffffffffffffffffffff021916908373ffffffffffffffffffffffffffffffffffffffff1602179055507f55f908c375c425a7e86f07347c4f0c54331f996f8801ba5abb9aecbd2aba449281836040516104c19291906107d3565b60405180910390a1610559565b600360008273ffffffffffffffffffffffffffffffffffffffff1673ffffffffffffffffffffffffffffffffffffffff16815260200190815260200160002060009054906101000a900460ff1615610558577f9f190a4ace0aaf447cf301da53e21b8f7876ad76758929285a2419410aa53b228160405161054f91906107fc565b60405180910390a15b5b5050565b60005b81518110156105c5576105b28282815181106105a5577f4e487b7100000000000000000000000000000000000000000000000000000000600052603260045260246000fd5b6020026020010151610151565b80806105bd90610982565b915050610560565b5050565b60006105dc6105d78461089f565b61087a565b905080838252602082019050828560208602820111156105fb57600080fd5b60005b8581101561062b57816106118882610635565b8452602084019350602083019250506001810190506105fe565b5050509392505050565b60008135905061064481610a8c565b92915050565b600082601f83011261065b57600080fd5b813561066b8482602086016105c9565b91505092915050565b60006020828403121561068657600080fd5b600061069484828501610635565b91505092915050565b6000602082840312156106af57600080fd5b600082013567ffffffffffffffff8111156106c957600080fd5b6106d58482850161064a565b91505092915050565b60006106ea83836106f6565b60208301905092915050565b6106ff81610915565b82525050565b61070e81610915565b82525050565b600061071f826108db565b61072981856108f3565b9350610734836108cb565b8060005b8381101561076557815161074c88826106de565b9750610757836108e6565b925050600181019050610738565b5085935050505092915050565b600061077f600d83610904565b915061078a82610a3a565b602082019050919050565b60006107a2601383610904565b91506107ad82610a63565b602082019050919050565b60006020820190506107cd6000830184610705565b92915050565b60006040820190506107e86000830185610705565b6107f56020830184610705565b9392505050565b60006040820190506108116000830184610705565b818103602083015261082281610772565b905092915050565b600060408201905061083f6000830184610705565b818103602083015261085081610795565b905092915050565b600060208201905081810360008301526108728184610714565b905092915050565b6000610884610895565b90506108908282610951565b919050565b6000604051905090565b600067ffffffffffffffff8211156108ba576108b96109fa565b5b602082029050602081019050919050565b6000819050602082019050919050565b600081519050919050565b6000602082019050919050565b600082825260208201905092915050565b600082825260208201905092915050565b600061092082610927565b9050919050565b600073ffffffffffffffffffffffffffffffffffffffff82169050919050565b6000819050919050565b61095a82610a29565b810181811067ffffffffffffffff82111715610979576109786109fa565b5b80604052505050565b600061098d82610947565b91507fffffffffffffffffffffffffffffffffffffffffffffffffffffffffffffffff8214156109c0576109bf6109cb565b5b600182019050919050565b7f4e487b7100000000000000000000000000000000000000000000000000000000600052601160045260246000fd5b7f4e487b7100000000000000000000000000000000000000000000000000000000600052604160045260246000fd5b6000601f19601f8301169050919050565b7f416c726561647920566f74656400000000000000000000000000000000000000600082015250565b7f416c726561647920612063616e64696461746500000000000000000000000000600082015250565b610a9581610915565b8114610aa057600080fd5b5056fea2646970667358221220175902d97a0f5c95bd35a25752b50a5c6f60c5bd6b5d58a8acb1df3101d6a54564736f6c63430008010033",
  "immutableReferences": {},
  "source": "// SPDX-License-Identifier: UNLICENSED\n\npragma solidity >= 0.7.0 < 0.9.0;\n\ncontract VoteHandling {\n\tmapping (address => address[]) private voteMap; // who has vote for whom\n\tmapping (address => bool) private isCandidate; \n\taddress[] private candidates;\n\tmapping (address => bool) private voted;\n\n\tconstructor() {}\n\n\tfunction vote(address candidate) public {\n\t\t// check if address is valid\n\t\trequire(candidate == address(candidate));\n\t\taddress voter = msg.sender;\n\t\n\t\t// append to candidates votes and voted\n\t\tif (!voted[voter]) {\n\t\t\tvoted[voter] = true; // initialized as false by default\n\t\t\tvoteMap[candidate].push(voter);\n\t\t\temit voteCast(voter, candidate);\n\t\t} else if (voted[voter]) {\n\t\t\temit voteFailed(voter, \"Already Voted\");\n\t\t}\n\t}\n\n\tfunction addCandidate(address candidate) public {\n\t\t// check if address is valid\t\n\t\trequire(candidate == address(candidate));\n\t\tif (!isCandidate[candidate]) {\n\t\t\tisCandidate[candidate] = true;\n\t\t\tcandidates.push(candidate);\n\t\t\temit candidateAdded(candidate);\n\t\t} else {\n\t\t\temit candidateFail(candidate, \"Already a candidate\");\n\t\t}\n\t}\n\n\tfunction addCandidateList(address[] memory nCandidates) public {\n\t\tfor (uint i = 0; i < nCandidates.length; i++) {\n\t\t\taddCandidate(nCandidates[i]);\n\t\t}\n\t}\n\t\n\tfunction getCandidates() public view returns (address[] memory) {\n\t\treturn candidates;\n\t}\n\n\n\tevent voteCast(address voter, address candidate); \n\tevent voteFailed(address voter, string message);\n\tevent candidateAdded(address candidate);\n\tevent candidateFail(address candidate, string message);\n}\n",
  "sourcePath": "/home/joakim/DAPP/VoteSysDapp/contracts/VoteHandling.sol",
  "compiler": {
    "name": "solc",
    "version": "0.8.1+commit.df193b15.Emscripten.clang"
  },
  "schemaVersion": "3.4.6",
  "updatedAt": "2022-04-04T12:39:16.740Z",
  "networkType": "ethereum",
  "devdoc": {
    "kind": "dev",
    "methods": {},
    "version": 1
  },
  "userdoc": {
    "kind": "user",
    "methods": {},
    "version": 1
  }
}