{
  "contractName": "VoteHandling",
  "abi": [
    {
      "inputs": [],
      "stateMutability": "nonpayable",
      "type": "constructor"
    },
    {
      "anonymous": false,
      "inputs": [
        {
          "indexed": false,
          "internalType": "address",
          "name": "voter",
          "type": "address"
        },
        {
          "indexed": false,
          "internalType": "address",
          "name": "candidate",
          "type": "address"
        }
      ],
      "name": "voteCast",
      "type": "event"
    },
    {
      "anonymous": false,
      "inputs": [
        {
          "indexed": false,
          "internalType": "address",
          "name": "voter",
          "type": "address"
        },
        {
          "indexed": false,
          "internalType": "string",
          "name": "message",
          "type": "string"
        }
      ],
      "name": "voteFailed",
      "type": "event"
    },
    {
      "inputs": [],
      "name": "description",
      "outputs": [
        {
          "internalType": "string",
          "name": "",
          "type": "string"
        }
      ],
      "stateMutability": "view",
      "type": "function"
    },
    {
      "inputs": [
        {
          "internalType": "address",
          "name": "candidate",
          "type": "address"
        }
      ],
      "name": "vote",
      "outputs": [
        {
          "internalType": "address",
          "name": "",
          "type": "address"
        }
      ],
      "stateMutability": "nonpayable",
      "type": "function"
    },
    {
      "inputs": [
        {
          "internalType": "address",
          "name": "candidate",
          "type": "address"
        }
      ],
      "name": "addCandidate",
      "outputs": [],
      "stateMutability": "nonpayable",
      "type": "function"
    }
  ],
  "bytecode": "0x608060405234801561001057600080fd5b50604051806080016040528060458152602001610879604591396002908051906020019061003f929190610045565b50610149565b828054610051906100e8565b90600052602060002090601f01602090048101928261007357600085556100ba565b82601f1061008c57805160ff19168380011785556100ba565b828001600101855582156100ba579182015b828111156100b957825182559160200191906001019061009e565b5b5090506100c791906100cb565b5090565b5b808211156100e45760008160009055506001016100cc565b5090565b6000600282049050600182168061010057607f821691505b602082108114156101145761011361011a565b5b50919050565b7f4e487b7100000000000000000000000000000000000000000000000000000000600052602260045260246000fd5b610721806101586000396000f3fe608060405234801561001057600080fd5b50600436106100415760003560e01c80633acd75f8146100465780636dd7d8ea146100625780637284e41614610092575b600080fd5b610060600480360381019061005b9190610490565b6100b0565b005b61007c60048036038101906100779190610490565b61018b565b6040516100899190610524565b60405180910390f35b61009a6103ed565b6040516100a79190610596565b60405180910390f35b8073ffffffffffffffffffffffffffffffffffffffff168173ffffffffffffffffffffffffffffffffffffffff16146100e857600080fd5b6000808273ffffffffffffffffffffffffffffffffffffffff1673ffffffffffffffffffffffffffffffffffffffff16815260200190815260200160002060009080600181540180825580915050600190039060005260206000200160009091909190916101000a81548173ffffffffffffffffffffffffffffffffffffffff021916908373ffffffffffffffffffffffffffffffffffffffff16021790555050565b60008173ffffffffffffffffffffffffffffffffffffffff168273ffffffffffffffffffffffffffffffffffffffff16146101c557600080fd5b6000339050600160008273ffffffffffffffffffffffffffffffffffffffff1673ffffffffffffffffffffffffffffffffffffffff16815260200190815260200160002060009054906101000a900460ff1661034f5760018060008373ffffffffffffffffffffffffffffffffffffffff1673ffffffffffffffffffffffffffffffffffffffff16815260200190815260200160002060006101000a81548160ff0219169083151502179055506000808473ffffffffffffffffffffffffffffffffffffffff1673ffffffffffffffffffffffffffffffffffffffff168152602001908152602001600020819080600181540180825580915050600190039060005260206000200160009091909190916101000a81548173ffffffffffffffffffffffffffffffffffffffff021916908373ffffffffffffffffffffffffffffffffffffffff1602179055507f55f908c375c425a7e86f07347c4f0c54331f996f8801ba5abb9aecbd2aba4492818460405161034292919061053f565b60405180910390a16103e3565b600160008273ffffffffffffffffffffffffffffffffffffffff1673ffffffffffffffffffffffffffffffffffffffff16815260200190815260200160002060009054906101000a900460ff16156103e2577f9f190a4ace0aaf447cf301da53e21b8f7876ad76758929285a2419410aa53b22816040516103d09190610568565b60405180910390a160009150506103e8565b5b829150505b919050565b600280546103fa90610639565b80601f016020809104026020016040519081016040528092919081815260200182805461042690610639565b80156104735780601f1061044857610100808354040283529160200191610473565b820191906000526020600020905b81548152906001019060200180831161045657829003601f168201915b505050505081565b60008135905061048a816106d4565b92915050565b6000602082840312156104a257600080fd5b60006104b08482850161047b565b91505092915050565b6104c2816105d4565b82525050565b60006104d3826105b8565b6104dd81856105c3565b93506104ed818560208601610606565b6104f68161069a565b840191505092915050565b600061050e600d836105c3565b9150610519826106ab565b602082019050919050565b600060208201905061053960008301846104b9565b92915050565b600060408201905061055460008301856104b9565b61056160208301846104b9565b9392505050565b600060408201905061057d60008301846104b9565b818103602083015261058e81610501565b905092915050565b600060208201905081810360008301526105b081846104c8565b905092915050565b600081519050919050565b600082825260208201905092915050565b60006105df826105e6565b9050919050565b600073ffffffffffffffffffffffffffffffffffffffff82169050919050565b60005b83811015610624578082015181840152602081019050610609565b83811115610633576000848401525b50505050565b6000600282049050600182168061065157607f821691505b602082108114156106655761066461066b565b5b50919050565b7f4e487b7100000000000000000000000000000000000000000000000000000000600052602260045260246000fd5b6000601f19601f8301169050919050565b7f416c726561647920566f74656400000000000000000000000000000000000000600082015250565b6106dd816105d4565b81146106e857600080fd5b5056fea2646970667358221220b852a61099d32716e40374ec7c3b435cc64877474f645850c7f3dab822385c2f64736f6c634300080100334120766f74652068616e646c657220666f7220757365727320746f20766f7465206f6e2063616e646964617465732c2061646465642062792074686520636f6e7472616374",
  "immutableReferences": {},
  "source": "// SPDX-License-Identifier: UNLICENSED\n\npragma solidity >= 0.7.0 < 0.9.0;\n\ncontract VoteHandling {\n\tmapping (address => address[]) private voteMap;\n\tmapping (address => bool) private voted;\n\taddress private constant EMPTY_ADDRESS = 0x0000000000000000000000000000000000000000;\n\tstring public description;\n\n\tconstructor() {\n\t\tdescription = \"A vote handler for users to vote on candidates, added by the contract\";\n\t}\n\n\tfunction vote(address candidate) public returns (address) {\n\t\t// check if address is valid\n\t\trequire(candidate == address(candidate));\n\t\taddress voter = msg.sender;\n\t\n\t\t// append to candidates votes and voted\n\t\tif (!voted[voter]) {\n\t\t\tvoted[voter] = true; //bool value doesn't really matter in current state\n\t\t\tvoteMap[candidate].push(voter);\n\t\t\temit voteCast(voter, candidate);\n\t\t} else if (voted[voter]) {\n\t\t\temit voteFailed(voter, \"Already Voted\");\n\t\t\treturn EMPTY_ADDRESS;\n\t\t}\n\t\treturn candidate;\n\t}\n\n\tfunction addCandidate(address candidate) public {\n\t\t// check if address is valid\t\n\t\trequire(candidate == address(candidate));\n\t\tvoteMap[candidate].push(EMPTY_ADDRESS);\n\n\t}\n\n\tevent voteCast(address voter, address candidate); \n\tevent voteFailed(address voter, string message);\n}\n",
  "sourcePath": "/Users/Jocke/DAPPS/trufflesuite_dev/VoteDapp/contracts/VoteHandling.sol",
  "compiler": {
    "name": "solc",
    "version": "0.8.1+commit.df193b15.Emscripten.clang"
  },
  "schemaVersion": "3.4.6",
  "updatedAt": "2022-03-24T06:06:19.086Z",
  "devdoc": {
    "kind": "dev",
    "methods": {},
    "version": 1
  },
  "userdoc": {
    "kind": "user",
    "methods": {},
    "version": 1
  }
}