{
  "contractName": "VoteHandling",
  "abi": [
    {
      "inputs": [],
      "stateMutability": "nonpayable",
      "type": "constructor"
    },
    {
      "anonymous": false,
      "inputs": [
        {
          "indexed": false,
          "internalType": "address",
          "name": "candidate",
          "type": "address"
        }
      ],
      "name": "candidateAdded",
      "type": "event"
    },
    {
      "anonymous": false,
      "inputs": [
        {
          "indexed": false,
          "internalType": "address",
          "name": "candidate",
          "type": "address"
        },
        {
          "indexed": false,
          "internalType": "string",
          "name": "message",
          "type": "string"
        }
      ],
      "name": "candidateFail",
      "type": "event"
    },
    {
      "anonymous": false,
      "inputs": [
        {
          "indexed": false,
          "internalType": "address",
          "name": "voter",
          "type": "address"
        },
        {
          "indexed": false,
          "internalType": "address",
          "name": "candidate",
          "type": "address"
        }
      ],
      "name": "voteCast",
      "type": "event"
    },
    {
      "anonymous": false,
      "inputs": [
        {
          "indexed": false,
          "internalType": "address",
          "name": "voter",
          "type": "address"
        },
        {
          "indexed": false,
          "internalType": "string",
          "name": "message",
          "type": "string"
        }
      ],
      "name": "voteFailed",
      "type": "event"
    },
    {
      "inputs": [
        {
          "internalType": "address",
          "name": "candidate",
          "type": "address"
        }
      ],
      "name": "vote",
      "outputs": [],
      "stateMutability": "nonpayable",
      "type": "function"
    },
    {
      "inputs": [
        {
          "internalType": "address",
          "name": "candidate",
          "type": "address"
        }
      ],
      "name": "addCandidate",
      "outputs": [],
      "stateMutability": "nonpayable",
      "type": "function"
    },
    {
      "inputs": [
        {
          "internalType": "address[]",
          "name": "_candidates",
          "type": "address[]"
        }
      ],
      "name": "addCandidateList",
      "outputs": [],
      "stateMutability": "nonpayable",
      "type": "function"
    },
    {
      "inputs": [],
      "name": "getCandidates",
      "outputs": [
        {
          "internalType": "address[]",
          "name": "",
          "type": "address[]"
        }
      ],
      "stateMutability": "view",
      "type": "function",
      "constant": true
    },
    {
      "inputs": [
        {
          "internalType": "address",
          "name": "voter",
          "type": "address"
        }
      ],
      "name": "hasVoted",
      "outputs": [
        {
          "internalType": "bool",
          "name": "",
          "type": "bool"
        }
      ],
      "stateMutability": "view",
      "type": "function",
      "constant": true
    },
    {
      "inputs": [],
      "name": "getVotes",
      "outputs": [
        {
          "internalType": "string[]",
          "name": "",
          "type": "string[]"
        }
      ],
      "stateMutability": "view",
      "type": "function",
      "constant": true
    }
  ],
  "bytecode": "0x608060405234801561001057600080fd5b50611199806100206000396000f3fe608060405234801561001057600080fd5b50600436106100625760003560e01c806306a49fce1461006757806309eef43e146100855780630dc96015146100b55780633acd75f8146100d35780636dd7d8ea146100ef578063f495b7821461010b575b600080fd5b61006f610127565b60405161007c9190610d2c565b60405180910390f35b61009f600480360381019061009a9190610a77565b6101b5565b6040516100ac9190610d70565b60405180910390f35b6100bd61020b565b6040516100ca9190610d4e565b60405180910390f35b6100ed60048036038101906100e89190610a77565b6103a7565b005b61010960048036038101906101049190610a77565b610561565b005b61012560048036038101906101209190610aa0565b6107b3565b005b606060028054806020026020016040519081016040528092919081815260200182805480156101ab57602002820191906000526020600020905b8160009054906101000a900473ffffffffffffffffffffffffffffffffffffffff1673ffffffffffffffffffffffffffffffffffffffff1681526020019060010190808311610161575b5050505050905090565b6000600360008373ffffffffffffffffffffffffffffffffffffffff1673ffffffffffffffffffffffffffffffffffffffff16815260200190815260200160002060009054906101000a900460ff169050919050565b6060600060028054905067ffffffffffffffff811115610254577f4e487b7100000000000000000000000000000000000000000000000000000000600052604160045260246000fd5b60405190808252806020026020018201604052801561028757816020015b60608152602001906001900390816102725790505b50905060005b60028054905081101561039f57610348600080600284815481106102da577f4e487b7100000000000000000000000000000000000000000000000000000000600052603260045260246000fd5b9060005260206000200160009054906101000a900473ffffffffffffffffffffffffffffffffffffffff1673ffffffffffffffffffffffffffffffffffffffff1673ffffffffffffffffffffffffffffffffffffffff1681526020019081526020016000208054905061081f565b828281518110610381577f4e487b7100000000000000000000000000000000000000000000000000000000600052603260045260246000fd5b6020026020010181905250808061039790610fe2565b91505061028d565b508091505090565b8073ffffffffffffffffffffffffffffffffffffffff168173ffffffffffffffffffffffffffffffffffffffff16146103df57600080fd5b600160008273ffffffffffffffffffffffffffffffffffffffff1673ffffffffffffffffffffffffffffffffffffffff16815260200190815260200160002060009054906101000a900460ff166105265760018060008373ffffffffffffffffffffffffffffffffffffffff1673ffffffffffffffffffffffffffffffffffffffff16815260200190815260200160002060006101000a81548160ff0219169083151502179055506002819080600181540180825580915050600190039060005260206000200160009091909190916101000a81548173ffffffffffffffffffffffffffffffffffffffff021916908373ffffffffffffffffffffffffffffffffffffffff1602179055507f0bb71f709aa777936ac5c8fd7ffcc9c770345379e194e07e7dc26fe3c7416be3816040516105199190610c8c565b60405180910390a161055e565b7f60026aee7dcdb9ccffdf383535c1feca07843a641292ac60c8523c04a56096fd816040516105559190610cfe565b60405180910390a15b50565b8073ffffffffffffffffffffffffffffffffffffffff168173ffffffffffffffffffffffffffffffffffffffff161461059957600080fd5b6000339050600360008273ffffffffffffffffffffffffffffffffffffffff1673ffffffffffffffffffffffffffffffffffffffff16815260200190815260200160002060009054906101000a900460ff16610724576001600360008373ffffffffffffffffffffffffffffffffffffffff1673ffffffffffffffffffffffffffffffffffffffff16815260200190815260200160002060006101000a81548160ff0219169083151502179055506000808373ffffffffffffffffffffffffffffffffffffffff1673ffffffffffffffffffffffffffffffffffffffff168152602001908152602001600020819080600181540180825580915050600190039060005260206000200160009091909190916101000a81548173ffffffffffffffffffffffffffffffffffffffff021916908373ffffffffffffffffffffffffffffffffffffffff1602179055507f55f908c375c425a7e86f07347c4f0c54331f996f8801ba5abb9aecbd2aba44928183604051610717929190610ca7565b60405180910390a16107af565b600360008273ffffffffffffffffffffffffffffffffffffffff1673ffffffffffffffffffffffffffffffffffffffff16815260200190815260200160002060009054906101000a900460ff16156107ae577f9f190a4ace0aaf447cf301da53e21b8f7876ad76758929285a2419410aa53b22816040516107a59190610cd0565b60405180910390a15b5b5050565b60005b815181101561081b576108088282815181106107fb577f4e487b7100000000000000000000000000000000000000000000000000000000600052603260045260246000fd5b60200260200101516103a7565b808061081390610fe2565b9150506107b6565b5050565b60606000821415610867576040518060400160405280600181526020017f300000000000000000000000000000000000000000000000000000000000000081525090506109c7565b600082905060005b6000821461089957808061088290610fe2565b915050600a826108929190610ed1565b915061086f565b60008167ffffffffffffffff8111156108db577f4e487b7100000000000000000000000000000000000000000000000000000000600052604160045260246000fd5b6040519080825280601f01601f19166020018201604052801561090d5781602001600182028036833780820191505090505b5090505b600085146109c0576001826109269190610f02565b9150600a85610935919061102b565b60306109419190610e7b565b60f81b81838151811061097d577f4e487b7100000000000000000000000000000000000000000000000000000000600052603260045260246000fd5b60200101907effffffffffffffffffffffffffffffffffffffffffffffffffffffffffffff1916908160001a905350600a856109b99190610ed1565b9450610911565b8093505050505b919050565b60006109df6109da84610db0565b610d8b565b905080838252602082019050828560208602820111156109fe57600080fd5b60005b85811015610a2e5781610a148882610a38565b845260208401935060208301925050600181019050610a01565b5050509392505050565b600081359050610a478161114c565b92915050565b600082601f830112610a5e57600080fd5b8135610a6e8482602086016109cc565b91505092915050565b600060208284031215610a8957600080fd5b6000610a9784828501610a38565b91505092915050565b600060208284031215610ab257600080fd5b600082013567ffffffffffffffff811115610acc57600080fd5b610ad884828501610a4d565b91505092915050565b6000610aed8383610b0d565b60208301905092915050565b6000610b058383610c0d565b905092915050565b610b1681610f36565b82525050565b610b2581610f36565b82525050565b6000610b3682610dfc565b610b408185610e37565b9350610b4b83610ddc565b8060005b83811015610b7c578151610b638882610ae1565b9750610b6e83610e1d565b925050600181019050610b4f565b5085935050505092915050565b6000610b9482610e07565b610b9e8185610e48565b935083602082028501610bb085610dec565b8060005b85811015610bec5784840389528151610bcd8582610af9565b9450610bd883610e2a565b925060208a01995050600181019050610bb4565b50829750879550505050505092915050565b610c0781610f48565b82525050565b6000610c1882610e12565b610c228185610e59565b9350610c32818560208601610f7e565b610c3b816110e9565b840191505092915050565b6000610c53600d83610e6a565b9150610c5e826110fa565b602082019050919050565b6000610c76601383610e6a565b9150610c8182611123565b602082019050919050565b6000602082019050610ca16000830184610b1c565b92915050565b6000604082019050610cbc6000830185610b1c565b610cc96020830184610b1c565b9392505050565b6000604082019050610ce56000830184610b1c565b8181036020830152610cf681610c46565b905092915050565b6000604082019050610d136000830184610b1c565b8181036020830152610d2481610c69565b905092915050565b60006020820190508181036000830152610d468184610b2b565b905092915050565b60006020820190508181036000830152610d688184610b89565b905092915050565b6000602082019050610d856000830184610bfe565b92915050565b6000610d95610da6565b9050610da18282610fb1565b919050565b6000604051905090565b600067ffffffffffffffff821115610dcb57610dca6110ba565b5b602082029050602081019050919050565b6000819050602082019050919050565b6000819050602082019050919050565b600081519050919050565b600081519050919050565b600081519050919050565b6000602082019050919050565b6000602082019050919050565b600082825260208201905092915050565b600082825260208201905092915050565b600082825260208201905092915050565b600082825260208201905092915050565b6000610e8682610f74565b9150610e9183610f74565b9250827fffffffffffffffffffffffffffffffffffffffffffffffffffffffffffffffff03821115610ec657610ec561105c565b5b828201905092915050565b6000610edc82610f74565b9150610ee783610f74565b925082610ef757610ef661108b565b5b828204905092915050565b6000610f0d82610f74565b9150610f1883610f74565b925082821015610f2b57610f2a61105c565b5b828203905092915050565b6000610f4182610f54565b9050919050565b60008115159050919050565b600073ffffffffffffffffffffffffffffffffffffffff82169050919050565b6000819050919050565b60005b83811015610f9c578082015181840152602081019050610f81565b83811115610fab576000848401525b50505050565b610fba826110e9565b810181811067ffffffffffffffff82111715610fd957610fd86110ba565b5b80604052505050565b6000610fed82610f74565b91507fffffffffffffffffffffffffffffffffffffffffffffffffffffffffffffffff8214156110205761101f61105c565b5b600182019050919050565b600061103682610f74565b915061104183610f74565b9250826110515761105061108b565b5b828206905092915050565b7f4e487b7100000000000000000000000000000000000000000000000000000000600052601160045260246000fd5b7f4e487b7100000000000000000000000000000000000000000000000000000000600052601260045260246000fd5b7f4e487b7100000000000000000000000000000000000000000000000000000000600052604160045260246000fd5b6000601f19601f8301169050919050565b7f416c726561647920566f74656400000000000000000000000000000000000000600082015250565b7f416c726561647920612063616e64696461746500000000000000000000000000600082015250565b61115581610f36565b811461116057600080fd5b5056fea2646970667358221220dd6294fba2cbd1083a5177802c7f55995fd449aa8ebab3a99f5ad1c7eb5ce30364736f6c63430008010033",
  "immutableReferences": {},
  "source": "// SPDX-License-Identifier: UNLICENSED\n\npragma solidity >= 0.7.0 < 0.9.0;\n\nimport \"@openzeppelin/contracts/utils/Strings.sol\";\n\ncontract VoteHandling {\n\tmapping (address => address[]) private voteMap; // who has vote for whom\n\tmapping (address => bool) private isCandidate; \n\taddress[] private candidates;\n\tmapping (address => bool) private voted;\n\n\tconstructor() {}\n\n\tfunction vote(address candidate) public {\n\t\t// check if address is valid\n\t\trequire(candidate == address(candidate));\n\t\taddress voter = msg.sender;\n\t\n\t\t// append to candidates votes and voted\n\t\tif (!voted[voter]) {\n\t\t\tvoted[voter] = true; // initialized as false by default\n\t\t\tvoteMap[candidate].push(voter);\n\t\t\temit voteCast(voter, candidate);\n\t\t} else if (voted[voter]) {\n\t\t\temit voteFailed(voter, \"Already Voted\");\n\t\t}\n\t}\n\n\tfunction addCandidate(address candidate) public {\n\t\t// check if address is valid\t\n\t\trequire(candidate == address(candidate));\n\t\tif (!isCandidate[candidate]) {\n\t\t\tisCandidate[candidate] = true;\n\t\t\tcandidates.push(candidate);\n\t\t\temit candidateAdded(candidate);\n\t\t} else {\n\t\t\temit candidateFail(candidate, \"Already a candidate\");\n\t\t}\n\t}\n\t\n\tfunction addCandidateList(address[] memory _candidates) public {\n\t\tfor (uint i = 0; i < _candidates.length; i++) {\n\t\t\taddCandidate(_candidates[i]);\n\t\t}\n\t}\n\t\n\tfunction getCandidates() public view returns (address[] memory) {\n\t\treturn candidates;\n\t}\n\n\tfunction hasVoted(address voter) public view returns (bool) {\n\t\treturn voted[voter];\n\t}\n\n\tfunction getVotes() public view returns (string[] memory) {\n\t\tstring[] memory voteCount = new string[](candidates.length);\n\t\tfor (uint i = 0; i < candidates.length; i++) {\n\t\t\tvoteCount[i] = Strings.toString(voteMap[candidates[i]].length);\n\t\t}\n\t\treturn voteCount;\n\t}\n\n\n\tevent voteCast(address voter, address candidate); \n\tevent voteFailed(address voter, string message);\n\tevent candidateAdded(address candidate);\n\tevent candidateFail(address candidate, string message);\n}\n",
  "sourcePath": "/home/joakim/DAPP/VoteSysDapp/contracts/VoteHandling.sol",
  "compiler": {
    "name": "solc",
    "version": "0.8.1+commit.df193b15.Emscripten.clang"
  },
  "schemaVersion": "3.4.6",
  "updatedAt": "2022-04-11T01:55:56.368Z",
  "networkType": "ethereum",
  "devdoc": {
    "kind": "dev",
    "methods": {},
    "version": 1
  },
  "userdoc": {
    "kind": "user",
    "methods": {},
    "version": 1
  }
}